{
	"contracts/Classwork.sol": {
		"IkoroduStore": {
			"abi": [
				{
					"inputs": [],
					"name": "locationPrices",
					"outputs": [
						{
							"internalType": "uint32",
							"name": "",
							"type": "uint32"
						},
						{
							"internalType": "uint32",
							"name": "",
							"type": "uint32"
						},
						{
							"internalType": "uint32",
							"name": "",
							"type": "uint32"
						},
						{
							"internalType": "uint32",
							"name": "",
							"type": "uint32"
						}
					],
					"stateMutability": "view",
					"type": "function"
				}
			],
			"devdoc": {
				"kind": "dev",
				"methods": {},
				"version": 1
			},
			"evm": {
				"assembly": "    /* \"contracts/Classwork.sol\":465:869  contract IkoroduStore is BaseStore {... */\n  mstore(0x40, 0x80)\n  callvalue\n  dup1\n  iszero\n  tag_1\n  jumpi\n  0x00\n  dup1\n  revert\ntag_1:\n  pop\n  dataSize(sub_0)\n  dup1\n  dataOffset(sub_0)\n  0x00\n  codecopy\n  0x00\n  return\nstop\n\nsub_0: assembly {\n        /* \"contracts/Classwork.sol\":465:869  contract IkoroduStore is BaseStore {... */\n      mstore(0x40, 0x80)\n      callvalue\n      dup1\n      iszero\n      tag_1\n      jumpi\n      0x00\n      dup1\n      revert\n    tag_1:\n      pop\n      jumpi(tag_2, lt(calldatasize, 0x04))\n      shr(0xe0, calldataload(0x00))\n      dup1\n      0x5d02e2f3\n      eq\n      tag_3\n      jumpi\n    tag_2:\n      0x00\n      dup1\n      revert\n        /* \"contracts/Classwork.sol\":507:866  function locationPrices() public view virtual override  returns (uint32, uint32, uint32, uint32) {... */\n    tag_3:\n      tag_4\n      tag_5\n      jump\t// in\n    tag_4:\n      mload(0x40)\n      tag_6\n      swap5\n      swap4\n      swap3\n      swap2\n      swap1\n      tag_7\n      jump\t// in\n    tag_6:\n      mload(0x40)\n      dup1\n      swap2\n      sub\n      swap1\n      return\n    tag_5:\n        /* \"contracts/Classwork.sol\":572:578  uint32 */\n      0x00\n        /* \"contracts/Classwork.sol\":580:586  uint32 */\n      dup1\n        /* \"contracts/Classwork.sol\":588:594  uint32 */\n      0x00\n        /* \"contracts/Classwork.sol\":596:602  uint32 */\n      dup1\n        /* \"contracts/Classwork.sol\":613:631  uint32 plateOfrice */\n      0x00\n        /* \"contracts/Classwork.sol\":634:643  4000 * 10 */\n      0x9c40\n        /* \"contracts/Classwork.sol\":613:643  uint32 plateOfrice = 4000 * 10 */\n      swap1\n      pop\n        /* \"contracts/Classwork.sol\":652:671  uint32  tableBottle */\n      0x00\n        /* \"contracts/Classwork.sol\":674:682  200 * 10 */\n      0x07d0\n        /* \"contracts/Classwork.sol\":652:682  uint32  tableBottle = 200 * 10 */\n      swap1\n      pop\n        /* \"contracts/Classwork.sol\":691:704  uint32 burger */\n      0x00\n        /* \"contracts/Classwork.sol\":707:716  1500 * 10 */\n      0x3a98\n        /* \"contracts/Classwork.sol\":691:716  uint32 burger = 1500 * 10 */\n      swap1\n      pop\n        /* \"contracts/Classwork.sol\":725:740  uint32 shawarma */\n      0x00\n        /* \"contracts/Classwork.sol\":743:751  2300 *10 */\n      0x59d8\n        /* \"contracts/Classwork.sol\":725:751  uint32 shawarma = 2300 *10 */\n      swap1\n      pop\n        /* \"contracts/Classwork.sol\":762:788  BaseStore.locationPrices() */\n      tag_9\n        /* \"contracts/Classwork.sol\":762:786  BaseStore.locationPrices */\n      tag_10\n        /* \"contracts/Classwork.sol\":762:788  BaseStore.locationPrices() */\n      jump\t// in\n    tag_9:\n      pop\n      pop\n      pop\n      pop\n        /* \"contracts/Classwork.sol\":813:824  plateOfrice */\n      dup4\n        /* \"contracts/Classwork.sol\":826:837  tableBottle */\n      dup4\n        /* \"contracts/Classwork.sol\":839:845  burger */\n      dup4\n        /* \"contracts/Classwork.sol\":848:856  shawarma */\n      dup4\n        /* \"contracts/Classwork.sol\":805:857  return (plateOfrice, tableBottle, burger , shawarma) */\n      swap8\n      pop\n      swap8\n      pop\n      swap8\n      pop\n      swap8\n      pop\n      pop\n      pop\n      pop\n      pop\n        /* \"contracts/Classwork.sol\":507:866  function locationPrices() public view virtual override  returns (uint32, uint32, uint32, uint32) {... */\n      swap1\n      swap2\n      swap3\n      swap4\n      jump\t// out\n        /* \"contracts/Classwork.sol\":186:458  function locationPrices() public view virtual returns (uint32, uint32, uint32, uint32) {... */\n    tag_10:\n        /* \"contracts/Classwork.sol\":241:247  uint32 */\n      0x00\n        /* \"contracts/Classwork.sol\":249:255  uint32 */\n      dup1\n        /* \"contracts/Classwork.sol\":257:263  uint32 */\n      0x00\n        /* \"contracts/Classwork.sol\":265:271  uint32 */\n      dup1\n        /* \"contracts/Classwork.sol\":280:298  uint32 plateOfrice */\n      0x00\n        /* \"contracts/Classwork.sol\":301:305  4000 */\n      0x0fa0\n        /* \"contracts/Classwork.sol\":280:305  uint32 plateOfrice = 4000 */\n      swap1\n      pop\n        /* \"contracts/Classwork.sol\":312:330  uint32 tableBottle */\n      0x00\n        /* \"contracts/Classwork.sol\":333:336  200 */\n      0xc8\n        /* \"contracts/Classwork.sol\":312:336  uint32 tableBottle = 200 */\n      swap1\n      pop\n        /* \"contracts/Classwork.sol\":343:356  uint32 burger */\n      0x00\n        /* \"contracts/Classwork.sol\":359:363  1500 */\n      0x05dc\n        /* \"contracts/Classwork.sol\":343:363  uint32 burger = 1500 */\n      swap1\n      pop\n        /* \"contracts/Classwork.sol\":370:385  uint32 shawarma */\n      0x00\n        /* \"contracts/Classwork.sol\":388:392  2300 */\n      0x08fc\n        /* \"contracts/Classwork.sol\":370:392  uint32 shawarma = 2300 */\n      swap1\n      pop\n        /* \"contracts/Classwork.sol\":409:420  plateOfrice */\n      dup4\n        /* \"contracts/Classwork.sol\":422:433  tableBottle */\n      dup4\n        /* \"contracts/Classwork.sol\":435:441  burger */\n      dup4\n        /* \"contracts/Classwork.sol\":443:451  shawarma */\n      dup4\n        /* \"contracts/Classwork.sol\":401:452  return (plateOfrice, tableBottle, burger, shawarma) */\n      swap8\n      pop\n      swap8\n      pop\n      swap8\n      pop\n      swap8\n      pop\n      pop\n      pop\n      pop\n      pop\n        /* \"contracts/Classwork.sol\":186:458  function locationPrices() public view virtual returns (uint32, uint32, uint32, uint32) {... */\n      swap1\n      swap2\n      swap3\n      swap4\n      jump\t// out\n        /* \"#utility.yul\":7:100   */\n    tag_12:\n        /* \"#utility.yul\":43:50   */\n      0x00\n        /* \"#utility.yul\":83:93   */\n      0xffffffff\n        /* \"#utility.yul\":76:81   */\n      dup3\n        /* \"#utility.yul\":72:94   */\n      and\n        /* \"#utility.yul\":61:94   */\n      swap1\n      pop\n        /* \"#utility.yul\":7:100   */\n      swap2\n      swap1\n      pop\n      jump\t// out\n        /* \"#utility.yul\":106:221   */\n    tag_13:\n        /* \"#utility.yul\":191:214   */\n      tag_17\n        /* \"#utility.yul\":208:213   */\n      dup2\n        /* \"#utility.yul\":191:214   */\n      tag_12\n      jump\t// in\n    tag_17:\n        /* \"#utility.yul\":186:189   */\n      dup3\n        /* \"#utility.yul\":179:215   */\n      mstore\n        /* \"#utility.yul\":106:221   */\n      pop\n      pop\n      jump\t// out\n        /* \"#utility.yul\":227:764   */\n    tag_7:\n        /* \"#utility.yul\":396:400   */\n      0x00\n        /* \"#utility.yul\":434:437   */\n      0x80\n        /* \"#utility.yul\":423:432   */\n      dup3\n        /* \"#utility.yul\":419:438   */\n      add\n        /* \"#utility.yul\":411:438   */\n      swap1\n      pop\n        /* \"#utility.yul\":448:517   */\n      tag_19\n        /* \"#utility.yul\":514:515   */\n      0x00\n        /* \"#utility.yul\":503:512   */\n      dup4\n        /* \"#utility.yul\":499:516   */\n      add\n        /* \"#utility.yul\":490:496   */\n      dup8\n        /* \"#utility.yul\":448:517   */\n      tag_13\n      jump\t// in\n    tag_19:\n        /* \"#utility.yul\":527:597   */\n      tag_20\n        /* \"#utility.yul\":593:595   */\n      0x20\n        /* \"#utility.yul\":582:591   */\n      dup4\n        /* \"#utility.yul\":578:596   */\n      add\n        /* \"#utility.yul\":569:575   */\n      dup7\n        /* \"#utility.yul\":527:597   */\n      tag_13\n      jump\t// in\n    tag_20:\n        /* \"#utility.yul\":607:677   */\n      tag_21\n        /* \"#utility.yul\":673:675   */\n      0x40\n        /* \"#utility.yul\":662:671   */\n      dup4\n        /* \"#utility.yul\":658:676   */\n      add\n        /* \"#utility.yul\":649:655   */\n      dup6\n        /* \"#utility.yul\":607:677   */\n      tag_13\n      jump\t// in\n    tag_21:\n        /* \"#utility.yul\":687:757   */\n      tag_22\n        /* \"#utility.yul\":753:755   */\n      0x60\n        /* \"#utility.yul\":742:751   */\n      dup4\n        /* \"#utility.yul\":738:756   */\n      add\n        /* \"#utility.yul\":729:735   */\n      dup5\n        /* \"#utility.yul\":687:757   */\n      tag_13\n      jump\t// in\n    tag_22:\n        /* \"#utility.yul\":227:764   */\n      swap6\n      swap5\n      pop\n      pop\n      pop\n      pop\n      pop\n      jump\t// out\n\n    auxdata: 0xa264697066735822122058147b17710f33ec6053b03f867f6a76d24cbd4dbe449576ed166e397054d63b64736f6c634300081a0033\n}\n",
				"bytecode": {
					"linkReferences": {},
					"object": "6080604052348015600e575f80fd5b506101548061001c5f395ff3fe608060405234801561000f575f80fd5b5060043610610029575f3560e01c80635d02e2f31461002d575b5f80fd5b61003561004e565b60405161004594939291906100db565b60405180910390f35b5f805f805f619c4090505f6107d090505f613a9890505f6159d8905061007261008c565b505050508383838397509750975097505050505090919293565b5f805f805f610fa090505f60c890505f6105dc90505f6108fc90508383838397509750975097505050505090919293565b5f63ffffffff82169050919050565b6100d5816100bd565b82525050565b5f6080820190506100ee5f8301876100cc565b6100fb60208301866100cc565b61010860408301856100cc565b61011560608301846100cc565b9594505050505056fea264697066735822122058147b17710f33ec6053b03f867f6a76d24cbd4dbe449576ed166e397054d63b64736f6c634300081a0033",
					"opcodes": "PUSH1 0x80 PUSH1 0x40 MSTORE CALLVALUE DUP1 ISZERO PUSH1 0xE JUMPI PUSH0 DUP1 REVERT JUMPDEST POP PUSH2 0x154 DUP1 PUSH2 0x1C PUSH0 CODECOPY PUSH0 RETURN INVALID PUSH1 0x80 PUSH1 0x40 MSTORE CALLVALUE DUP1 ISZERO PUSH2 0xF JUMPI PUSH0 DUP1 REVERT JUMPDEST POP PUSH1 0x4 CALLDATASIZE LT PUSH2 0x29 JUMPI PUSH0 CALLDATALOAD PUSH1 0xE0 SHR DUP1 PUSH4 0x5D02E2F3 EQ PUSH2 0x2D JUMPI JUMPDEST PUSH0 DUP1 REVERT JUMPDEST PUSH2 0x35 PUSH2 0x4E JUMP JUMPDEST PUSH1 0x40 MLOAD PUSH2 0x45 SWAP5 SWAP4 SWAP3 SWAP2 SWAP1 PUSH2 0xDB JUMP JUMPDEST PUSH1 0x40 MLOAD DUP1 SWAP2 SUB SWAP1 RETURN JUMPDEST PUSH0 DUP1 PUSH0 DUP1 PUSH0 PUSH2 0x9C40 SWAP1 POP PUSH0 PUSH2 0x7D0 SWAP1 POP PUSH0 PUSH2 0x3A98 SWAP1 POP PUSH0 PUSH2 0x59D8 SWAP1 POP PUSH2 0x72 PUSH2 0x8C JUMP JUMPDEST POP POP POP POP DUP4 DUP4 DUP4 DUP4 SWAP8 POP SWAP8 POP SWAP8 POP SWAP8 POP POP POP POP POP SWAP1 SWAP2 SWAP3 SWAP4 JUMP JUMPDEST PUSH0 DUP1 PUSH0 DUP1 PUSH0 PUSH2 0xFA0 SWAP1 POP PUSH0 PUSH1 0xC8 SWAP1 POP PUSH0 PUSH2 0x5DC SWAP1 POP PUSH0 PUSH2 0x8FC SWAP1 POP DUP4 DUP4 DUP4 DUP4 SWAP8 POP SWAP8 POP SWAP8 POP SWAP8 POP POP POP POP POP SWAP1 SWAP2 SWAP3 SWAP4 JUMP JUMPDEST PUSH0 PUSH4 0xFFFFFFFF DUP3 AND SWAP1 POP SWAP2 SWAP1 POP JUMP JUMPDEST PUSH2 0xD5 DUP2 PUSH2 0xBD JUMP JUMPDEST DUP3 MSTORE POP POP JUMP JUMPDEST PUSH0 PUSH1 0x80 DUP3 ADD SWAP1 POP PUSH2 0xEE PUSH0 DUP4 ADD DUP8 PUSH2 0xCC JUMP JUMPDEST PUSH2 0xFB PUSH1 0x20 DUP4 ADD DUP7 PUSH2 0xCC JUMP JUMPDEST PUSH2 0x108 PUSH1 0x40 DUP4 ADD DUP6 PUSH2 0xCC JUMP JUMPDEST PUSH2 0x115 PUSH1 0x60 DUP4 ADD DUP5 PUSH2 0xCC JUMP JUMPDEST SWAP6 SWAP5 POP POP POP POP POP JUMP INVALID LOG2 PUSH5 0x6970667358 0x22 SLT KECCAK256 PC EQ PUSH28 0x17710F33EC6053B03F867F6A76D24CBD4DBE449576ED166E397054D6 EXTCODESIZE PUSH5 0x736F6C6343 STOP ADDMOD BYTE STOP CALLER "
				},
				"gasEstimates": {
					"creation": {
						"codeDepositCost": "68000",
						"executionCost": "115",
						"totalCost": "68115"
					},
					"external": {
						"locationPrices()": "infinite"
					}
				},
				"methodIdentifiers": {
					"locationPrices()": "5d02e2f3"
				}
			},
			"storageLayout": {
				"storage": [],
				"types": null
			},
			"userdoc": {
				"kind": "user",
				"methods": {},
				"version": 1
			}
		}
	}
}