{
	"contracts/Num.sol": {
		"Number": {
			"abi": [
				{
					"inputs": [],
					"name": "VAT",
					"outputs": [
						{
							"internalType": "uint32",
							"name": "",
							"type": "uint32"
						}
					],
					"stateMutability": "view",
					"type": "function"
				},
				{
					"inputs": [
						{
							"internalType": "uint256",
							"name": "_num",
							"type": "uint256"
						},
						{
							"internalType": "address",
							"name": "_addr",
							"type": "address"
						}
					],
					"name": "addAmount",
					"outputs": [
						{
							"internalType": "bool",
							"name": "",
							"type": "bool"
						}
					],
					"stateMutability": "nonpayable",
					"type": "function"
				},
				{
					"inputs": [
						{
							"internalType": "address",
							"name": "_addr",
							"type": "address"
						}
					],
					"name": "getUserBalance",
					"outputs": [
						{
							"internalType": "uint256",
							"name": "",
							"type": "uint256"
						}
					],
					"stateMutability": "view",
					"type": "function"
				},
				{
					"inputs": [],
					"name": "getVATvalue",
					"outputs": [
						{
							"internalType": "uint32",
							"name": "",
							"type": "uint32"
						}
					],
					"stateMutability": "view",
					"type": "function"
				}
			],
			"devdoc": {
				"kind": "dev",
				"methods": {},
				"version": 1
			},
			"evm": {
				"assembly": "    /* \"contracts/Num.sol\":61:658  contract Number {... */\n  mstore(0x40, 0x80)\n    /* \"contracts/Num.sol\":104:107  100 */\n  0x64\n    /* \"contracts/Num.sol\":84:107  uint32 public VAT = 100 */\n  0x00\n  dup1\n  0x0100\n  exp\n  dup2\n  sload\n  dup2\n  0xffffffff\n  mul\n  not\n  and\n  swap1\n  dup4\n  0xffffffff\n  and\n  mul\n  or\n  swap1\n  sstore\n  pop\n    /* \"contracts/Num.sol\":61:658  contract Number {... */\n  callvalue\n  dup1\n  iszero\n  tag_1\n  jumpi\n  0x00\n  dup1\n  revert\ntag_1:\n  pop\n  dataSize(sub_0)\n  dup1\n  dataOffset(sub_0)\n  0x00\n  codecopy\n  0x00\n  return\nstop\n\nsub_0: assembly {\n        /* \"contracts/Num.sol\":61:658  contract Number {... */\n      mstore(0x40, 0x80)\n      callvalue\n      dup1\n      iszero\n      tag_1\n      jumpi\n      0x00\n      dup1\n      revert\n    tag_1:\n      pop\n      jumpi(tag_2, lt(calldatasize, 0x04))\n      shr(0xe0, calldataload(0x00))\n      dup1\n      0x1e57b0c5\n      eq\n      tag_3\n      jumpi\n      dup1\n      0x3ae14aa3\n      eq\n      tag_4\n      jumpi\n      dup1\n      0x47734892\n      eq\n      tag_5\n      jumpi\n      dup1\n      0x61d78262\n      eq\n      tag_6\n      jumpi\n    tag_2:\n      0x00\n      dup1\n      revert\n        /* \"contracts/Num.sol\":204:284  function getVATvalue() public view returns(uint32) {... */\n    tag_3:\n      tag_7\n      tag_8\n      jump\t// in\n    tag_7:\n      mload(0x40)\n      tag_9\n      swap2\n      swap1\n      tag_10\n      jump\t// in\n    tag_9:\n      mload(0x40)\n      dup1\n      swap2\n      sub\n      swap1\n      return\n        /* \"contracts/Num.sol\":292:539  function addAmount(uint256 _num, address _addr) public returns (bool) {... */\n    tag_4:\n      tag_11\n      0x04\n      dup1\n      calldatasize\n      sub\n      dup2\n      add\n      swap1\n      tag_12\n      swap2\n      swap1\n      tag_13\n      jump\t// in\n    tag_12:\n      tag_14\n      jump\t// in\n    tag_11:\n      mload(0x40)\n      tag_15\n      swap2\n      swap1\n      tag_16\n      jump\t// in\n    tag_15:\n      mload(0x40)\n      dup1\n      swap2\n      sub\n      swap1\n      return\n        /* \"contracts/Num.sol\":547:653  function getUserBalance(address _addr) public view returns (uint256) {... */\n    tag_5:\n      tag_17\n      0x04\n      dup1\n      calldatasize\n      sub\n      dup2\n      add\n      swap1\n      tag_18\n      swap2\n      swap1\n      tag_19\n      jump\t// in\n    tag_18:\n      tag_20\n      jump\t// in\n    tag_17:\n      mload(0x40)\n      tag_21\n      swap2\n      swap1\n      tag_22\n      jump\t// in\n    tag_21:\n      mload(0x40)\n      dup1\n      swap2\n      sub\n      swap1\n      return\n        /* \"contracts/Num.sol\":84:107  uint32 public VAT = 100 */\n    tag_6:\n      tag_23\n      tag_24\n      jump\t// in\n    tag_23:\n      mload(0x40)\n      tag_25\n      swap2\n      swap1\n      tag_10\n      jump\t// in\n    tag_25:\n      mload(0x40)\n      dup1\n      swap2\n      sub\n      swap1\n      return\n        /* \"contracts/Num.sol\":204:284  function getVATvalue() public view returns(uint32) {... */\n    tag_8:\n        /* \"contracts/Num.sol\":247:253  uint32 */\n      0x00\n        /* \"contracts/Num.sol\":273:276  VAT */\n      dup1\n      0x00\n      swap1\n      sload\n      swap1\n      0x0100\n      exp\n      swap1\n      div\n      0xffffffff\n      and\n        /* \"contracts/Num.sol\":266:276  return VAT */\n      swap1\n      pop\n        /* \"contracts/Num.sol\":204:284  function getVATvalue() public view returns(uint32) {... */\n      swap1\n      jump\t// out\n        /* \"contracts/Num.sol\":292:539  function addAmount(uint256 _num, address _addr) public returns (bool) {... */\n    tag_14:\n        /* \"contracts/Num.sol\":356:360  bool */\n      0x00\n        /* \"contracts/Num.sol\":388:391  VAT */\n      dup1\n      0x00\n      swap1\n      sload\n      swap1\n      0x0100\n      exp\n      swap1\n      div\n      0xffffffff\n      and\n        /* \"contracts/Num.sol\":381:391  _num > VAT */\n      0xffffffff\n      and\n        /* \"contracts/Num.sol\":381:385  _num */\n      dup4\n        /* \"contracts/Num.sol\":381:391  _num > VAT */\n      gt\n        /* \"contracts/Num.sol\":373:406  require(_num > VAT, \"Not enough\") */\n      tag_28\n      jumpi\n      mload(0x40)\n      0x08c379a000000000000000000000000000000000000000000000000000000000\n      dup2\n      mstore\n      0x04\n      add\n      tag_29\n      swap1\n      tag_30\n      jump\t// in\n    tag_29:\n      mload(0x40)\n      dup1\n      swap2\n      sub\n      swap1\n      revert\n    tag_28:\n        /* \"contracts/Num.sol\":419:427  uint res */\n      0x00\n        /* \"contracts/Num.sol\":437:440  VAT */\n      dup1\n      0x00\n      swap1\n      sload\n      swap1\n      0x0100\n      exp\n      swap1\n      div\n      0xffffffff\n      and\n        /* \"contracts/Num.sol\":430:440  _num - VAT */\n      0xffffffff\n      and\n        /* \"contracts/Num.sol\":430:434  _num */\n      dup5\n        /* \"contracts/Num.sol\":430:440  _num - VAT */\n      tag_31\n      swap2\n      swap1\n      tag_32\n      jump\t// in\n    tag_31:\n        /* \"contracts/Num.sol\":419:440  uint res = _num - VAT */\n      swap1\n      pop\n        /* \"contracts/Num.sol\":473:476  VAT */\n      0x00\n      dup1\n      sload\n      swap1\n      0x0100\n      exp\n      swap1\n      div\n      0xffffffff\n      and\n        /* \"contracts/Num.sol\":453:476  vatPayment[_addr]+= VAT */\n      0xffffffff\n      and\n        /* \"contracts/Num.sol\":453:463  vatPayment */\n      0x02\n        /* \"contracts/Num.sol\":453:470  vatPayment[_addr] */\n      0x00\n        /* \"contracts/Num.sol\":464:469  _addr */\n      dup6\n        /* \"contracts/Num.sol\":453:470  vatPayment[_addr] */\n      0xffffffffffffffffffffffffffffffffffffffff\n      and\n      0xffffffffffffffffffffffffffffffffffffffff\n      and\n      dup2\n      mstore\n      0x20\n      add\n      swap1\n      dup2\n      mstore\n      0x20\n      add\n      0x00\n      keccak256\n      0x00\n        /* \"contracts/Num.sol\":453:476  vatPayment[_addr]+= VAT */\n      dup3\n      dup3\n      sload\n      tag_33\n      swap2\n      swap1\n      tag_34\n      jump\t// in\n    tag_33:\n      swap3\n      pop\n      pop\n      dup2\n      swap1\n      sstore\n      pop\n        /* \"contracts/Num.sol\":504:507  res */\n      dup1\n        /* \"contracts/Num.sol\":489:493  acct */\n      0x01\n        /* \"contracts/Num.sol\":489:500  acct[_addr] */\n      0x00\n        /* \"contracts/Num.sol\":494:499  _addr */\n      dup6\n        /* \"contracts/Num.sol\":489:500  acct[_addr] */\n      0xffffffffffffffffffffffffffffffffffffffff\n      and\n      0xffffffffffffffffffffffffffffffffffffffff\n      and\n      dup2\n      mstore\n      0x20\n      add\n      swap1\n      dup2\n      mstore\n      0x20\n      add\n      0x00\n      keccak256\n      0x00\n        /* \"contracts/Num.sol\":489:507  acct[_addr] += res */\n      dup3\n      dup3\n      sload\n      tag_35\n      swap2\n      swap1\n      tag_34\n      jump\t// in\n    tag_35:\n      swap3\n      pop\n      pop\n      dup2\n      swap1\n      sstore\n      pop\n        /* \"contracts/Num.sol\":527:531  true */\n      0x01\n        /* \"contracts/Num.sol\":520:531  return true */\n      swap2\n      pop\n      pop\n        /* \"contracts/Num.sol\":292:539  function addAmount(uint256 _num, address _addr) public returns (bool) {... */\n      swap3\n      swap2\n      pop\n      pop\n      jump\t// out\n        /* \"contracts/Num.sol\":547:653  function getUserBalance(address _addr) public view returns (uint256) {... */\n    tag_20:\n        /* \"contracts/Num.sol\":607:614  uint256 */\n      0x00\n        /* \"contracts/Num.sol\":634:638  acct */\n      0x01\n        /* \"contracts/Num.sol\":634:645  acct[_addr] */\n      0x00\n        /* \"contracts/Num.sol\":639:644  _addr */\n      dup4\n        /* \"contracts/Num.sol\":634:645  acct[_addr] */\n      0xffffffffffffffffffffffffffffffffffffffff\n      and\n      0xffffffffffffffffffffffffffffffffffffffff\n      and\n      dup2\n      mstore\n      0x20\n      add\n      swap1\n      dup2\n      mstore\n      0x20\n      add\n      0x00\n      keccak256\n      sload\n        /* \"contracts/Num.sol\":627:645  return acct[_addr] */\n      swap1\n      pop\n        /* \"contracts/Num.sol\":547:653  function getUserBalance(address _addr) public view returns (uint256) {... */\n      swap2\n      swap1\n      pop\n      jump\t// out\n        /* \"contracts/Num.sol\":84:107  uint32 public VAT = 100 */\n    tag_24:\n      0x00\n      dup1\n      sload\n      swap1\n      0x0100\n      exp\n      swap1\n      div\n      0xffffffff\n      and\n      dup2\n      jump\t// out\n        /* \"#utility.yul\":7:100   */\n    tag_37:\n        /* \"#utility.yul\":43:50   */\n      0x00\n        /* \"#utility.yul\":83:93   */\n      0xffffffff\n        /* \"#utility.yul\":76:81   */\n      dup3\n        /* \"#utility.yul\":72:94   */\n      and\n        /* \"#utility.yul\":61:94   */\n      swap1\n      pop\n        /* \"#utility.yul\":7:100   */\n      swap2\n      swap1\n      pop\n      jump\t// out\n        /* \"#utility.yul\":106:221   */\n    tag_38:\n        /* \"#utility.yul\":191:214   */\n      tag_59\n        /* \"#utility.yul\":208:213   */\n      dup2\n        /* \"#utility.yul\":191:214   */\n      tag_37\n      jump\t// in\n    tag_59:\n        /* \"#utility.yul\":186:189   */\n      dup3\n        /* \"#utility.yul\":179:215   */\n      mstore\n        /* \"#utility.yul\":106:221   */\n      pop\n      pop\n      jump\t// out\n        /* \"#utility.yul\":227:445   */\n    tag_10:\n        /* \"#utility.yul\":318:322   */\n      0x00\n        /* \"#utility.yul\":356:358   */\n      0x20\n        /* \"#utility.yul\":345:354   */\n      dup3\n        /* \"#utility.yul\":341:359   */\n      add\n        /* \"#utility.yul\":333:359   */\n      swap1\n      pop\n        /* \"#utility.yul\":369:438   */\n      tag_61\n        /* \"#utility.yul\":435:436   */\n      0x00\n        /* \"#utility.yul\":424:433   */\n      dup4\n        /* \"#utility.yul\":420:437   */\n      add\n        /* \"#utility.yul\":411:417   */\n      dup5\n        /* \"#utility.yul\":369:438   */\n      tag_38\n      jump\t// in\n    tag_61:\n        /* \"#utility.yul\":227:445   */\n      swap3\n      swap2\n      pop\n      pop\n      jump\t// out\n        /* \"#utility.yul\":532:649   */\n    tag_40:\n        /* \"#utility.yul\":641:642   */\n      0x00\n        /* \"#utility.yul\":638:639   */\n      dup1\n        /* \"#utility.yul\":631:643   */\n      revert\n        /* \"#utility.yul\":778:855   */\n    tag_42:\n        /* \"#utility.yul\":815:822   */\n      0x00\n        /* \"#utility.yul\":844:849   */\n      dup2\n        /* \"#utility.yul\":833:849   */\n      swap1\n      pop\n        /* \"#utility.yul\":778:855   */\n      swap2\n      swap1\n      pop\n      jump\t// out\n        /* \"#utility.yul\":861:983   */\n    tag_43:\n        /* \"#utility.yul\":934:958   */\n      tag_67\n        /* \"#utility.yul\":952:957   */\n      dup2\n        /* \"#utility.yul\":934:958   */\n      tag_42\n      jump\t// in\n    tag_67:\n        /* \"#utility.yul\":927:932   */\n      dup2\n        /* \"#utility.yul\":924:959   */\n      eq\n        /* \"#utility.yul\":914:977   */\n      tag_68\n      jumpi\n        /* \"#utility.yul\":973:974   */\n      0x00\n        /* \"#utility.yul\":970:971   */\n      dup1\n        /* \"#utility.yul\":963:975   */\n      revert\n        /* \"#utility.yul\":914:977   */\n    tag_68:\n        /* \"#utility.yul\":861:983   */\n      pop\n      jump\t// out\n        /* \"#utility.yul\":989:1128   */\n    tag_44:\n        /* \"#utility.yul\":1035:1040   */\n      0x00\n        /* \"#utility.yul\":1073:1079   */\n      dup2\n        /* \"#utility.yul\":1060:1080   */\n      calldataload\n        /* \"#utility.yul\":1051:1080   */\n      swap1\n      pop\n        /* \"#utility.yul\":1089:1122   */\n      tag_70\n        /* \"#utility.yul\":1116:1121   */\n      dup2\n        /* \"#utility.yul\":1089:1122   */\n      tag_43\n      jump\t// in\n    tag_70:\n        /* \"#utility.yul\":989:1128   */\n      swap3\n      swap2\n      pop\n      pop\n      jump\t// out\n        /* \"#utility.yul\":1134:1260   */\n    tag_45:\n        /* \"#utility.yul\":1171:1178   */\n      0x00\n        /* \"#utility.yul\":1211:1253   */\n      0xffffffffffffffffffffffffffffffffffffffff\n        /* \"#utility.yul\":1204:1209   */\n      dup3\n        /* \"#utility.yul\":1200:1254   */\n      and\n        /* \"#utility.yul\":1189:1254   */\n      swap1\n      pop\n        /* \"#utility.yul\":1134:1260   */\n      swap2\n      swap1\n      pop\n      jump\t// out\n        /* \"#utility.yul\":1266:1362   */\n    tag_46:\n        /* \"#utility.yul\":1303:1310   */\n      0x00\n        /* \"#utility.yul\":1332:1356   */\n      tag_73\n        /* \"#utility.yul\":1350:1355   */\n      dup3\n        /* \"#utility.yul\":1332:1356   */\n      tag_45\n      jump\t// in\n    tag_73:\n        /* \"#utility.yul\":1321:1356   */\n      swap1\n      pop\n        /* \"#utility.yul\":1266:1362   */\n      swap2\n      swap1\n      pop\n      jump\t// out\n        /* \"#utility.yul\":1368:1490   */\n    tag_47:\n        /* \"#utility.yul\":1441:1465   */\n      tag_75\n        /* \"#utility.yul\":1459:1464   */\n      dup2\n        /* \"#utility.yul\":1441:1465   */\n      tag_46\n      jump\t// in\n    tag_75:\n        /* \"#utility.yul\":1434:1439   */\n      dup2\n        /* \"#utility.yul\":1431:1466   */\n      eq\n        /* \"#utility.yul\":1421:1484   */\n      tag_76\n      jumpi\n        /* \"#utility.yul\":1480:1481   */\n      0x00\n        /* \"#utility.yul\":1477:1478   */\n      dup1\n        /* \"#utility.yul\":1470:1482   */\n      revert\n        /* \"#utility.yul\":1421:1484   */\n    tag_76:\n        /* \"#utility.yul\":1368:1490   */\n      pop\n      jump\t// out\n        /* \"#utility.yul\":1496:1635   */\n    tag_48:\n        /* \"#utility.yul\":1542:1547   */\n      0x00\n        /* \"#utility.yul\":1580:1586   */\n      dup2\n        /* \"#utility.yul\":1567:1587   */\n      calldataload\n        /* \"#utility.yul\":1558:1587   */\n      swap1\n      pop\n        /* \"#utility.yul\":1596:1629   */\n      tag_78\n        /* \"#utility.yul\":1623:1628   */\n      dup2\n        /* \"#utility.yul\":1596:1629   */\n      tag_47\n      jump\t// in\n    tag_78:\n        /* \"#utility.yul\":1496:1635   */\n      swap3\n      swap2\n      pop\n      pop\n      jump\t// out\n        /* \"#utility.yul\":1641:2115   */\n    tag_13:\n        /* \"#utility.yul\":1709:1715   */\n      0x00\n        /* \"#utility.yul\":1717:1723   */\n      dup1\n        /* \"#utility.yul\":1766:1768   */\n      0x40\n        /* \"#utility.yul\":1754:1763   */\n      dup4\n        /* \"#utility.yul\":1745:1752   */\n      dup6\n        /* \"#utility.yul\":1741:1764   */\n      sub\n        /* \"#utility.yul\":1737:1769   */\n      slt\n        /* \"#utility.yul\":1734:1853   */\n      iszero\n      tag_80\n      jumpi\n        /* \"#utility.yul\":1772:1851   */\n      tag_81\n      tag_40\n      jump\t// in\n    tag_81:\n        /* \"#utility.yul\":1734:1853   */\n    tag_80:\n        /* \"#utility.yul\":1892:1893   */\n      0x00\n        /* \"#utility.yul\":1917:1970   */\n      tag_82\n        /* \"#utility.yul\":1962:1969   */\n      dup6\n        /* \"#utility.yul\":1953:1959   */\n      dup3\n        /* \"#utility.yul\":1942:1951   */\n      dup7\n        /* \"#utility.yul\":1938:1960   */\n      add\n        /* \"#utility.yul\":1917:1970   */\n      tag_44\n      jump\t// in\n    tag_82:\n        /* \"#utility.yul\":1907:1970   */\n      swap3\n      pop\n        /* \"#utility.yul\":1863:1980   */\n      pop\n        /* \"#utility.yul\":2019:2021   */\n      0x20\n        /* \"#utility.yul\":2045:2098   */\n      tag_83\n        /* \"#utility.yul\":2090:2097   */\n      dup6\n        /* \"#utility.yul\":2081:2087   */\n      dup3\n        /* \"#utility.yul\":2070:2079   */\n      dup7\n        /* \"#utility.yul\":2066:2088   */\n      add\n        /* \"#utility.yul\":2045:2098   */\n      tag_48\n      jump\t// in\n    tag_83:\n        /* \"#utility.yul\":2035:2098   */\n      swap2\n      pop\n        /* \"#utility.yul\":1990:2108   */\n      pop\n        /* \"#utility.yul\":1641:2115   */\n      swap3\n      pop\n      swap3\n      swap1\n      pop\n      jump\t// out\n        /* \"#utility.yul\":2121:2211   */\n    tag_49:\n        /* \"#utility.yul\":2155:2162   */\n      0x00\n        /* \"#utility.yul\":2198:2203   */\n      dup2\n        /* \"#utility.yul\":2191:2204   */\n      iszero\n        /* \"#utility.yul\":2184:2205   */\n      iszero\n        /* \"#utility.yul\":2173:2205   */\n      swap1\n      pop\n        /* \"#utility.yul\":2121:2211   */\n      swap2\n      swap1\n      pop\n      jump\t// out\n        /* \"#utility.yul\":2217:2326   */\n    tag_50:\n        /* \"#utility.yul\":2298:2319   */\n      tag_86\n        /* \"#utility.yul\":2313:2318   */\n      dup2\n        /* \"#utility.yul\":2298:2319   */\n      tag_49\n      jump\t// in\n    tag_86:\n        /* \"#utility.yul\":2293:2296   */\n      dup3\n        /* \"#utility.yul\":2286:2320   */\n      mstore\n        /* \"#utility.yul\":2217:2326   */\n      pop\n      pop\n      jump\t// out\n        /* \"#utility.yul\":2332:2542   */\n    tag_16:\n        /* \"#utility.yul\":2419:2423   */\n      0x00\n        /* \"#utility.yul\":2457:2459   */\n      0x20\n        /* \"#utility.yul\":2446:2455   */\n      dup3\n        /* \"#utility.yul\":2442:2460   */\n      add\n        /* \"#utility.yul\":2434:2460   */\n      swap1\n      pop\n        /* \"#utility.yul\":2470:2535   */\n      tag_88\n        /* \"#utility.yul\":2532:2533   */\n      0x00\n        /* \"#utility.yul\":2521:2530   */\n      dup4\n        /* \"#utility.yul\":2517:2534   */\n      add\n        /* \"#utility.yul\":2508:2514   */\n      dup5\n        /* \"#utility.yul\":2470:2535   */\n      tag_50\n      jump\t// in\n    tag_88:\n        /* \"#utility.yul\":2332:2542   */\n      swap3\n      swap2\n      pop\n      pop\n      jump\t// out\n        /* \"#utility.yul\":2548:2877   */\n    tag_19:\n        /* \"#utility.yul\":2607:2613   */\n      0x00\n        /* \"#utility.yul\":2656:2658   */\n      0x20\n        /* \"#utility.yul\":2644:2653   */\n      dup3\n        /* \"#utility.yul\":2635:2642   */\n      dup5\n        /* \"#utility.yul\":2631:2654   */\n      sub\n        /* \"#utility.yul\":2627:2659   */\n      slt\n        /* \"#utility.yul\":2624:2743   */\n      iszero\n      tag_90\n      jumpi\n        /* \"#utility.yul\":2662:2741   */\n      tag_91\n      tag_40\n      jump\t// in\n    tag_91:\n        /* \"#utility.yul\":2624:2743   */\n    tag_90:\n        /* \"#utility.yul\":2782:2783   */\n      0x00\n        /* \"#utility.yul\":2807:2860   */\n      tag_92\n        /* \"#utility.yul\":2852:2859   */\n      dup5\n        /* \"#utility.yul\":2843:2849   */\n      dup3\n        /* \"#utility.yul\":2832:2841   */\n      dup6\n        /* \"#utility.yul\":2828:2850   */\n      add\n        /* \"#utility.yul\":2807:2860   */\n      tag_48\n      jump\t// in\n    tag_92:\n        /* \"#utility.yul\":2797:2860   */\n      swap2\n      pop\n        /* \"#utility.yul\":2753:2870   */\n      pop\n        /* \"#utility.yul\":2548:2877   */\n      swap3\n      swap2\n      pop\n      pop\n      jump\t// out\n        /* \"#utility.yul\":2883:3001   */\n    tag_51:\n        /* \"#utility.yul\":2970:2994   */\n      tag_94\n        /* \"#utility.yul\":2988:2993   */\n      dup2\n        /* \"#utility.yul\":2970:2994   */\n      tag_42\n      jump\t// in\n    tag_94:\n        /* \"#utility.yul\":2965:2968   */\n      dup3\n        /* \"#utility.yul\":2958:2995   */\n      mstore\n        /* \"#utility.yul\":2883:3001   */\n      pop\n      pop\n      jump\t// out\n        /* \"#utility.yul\":3007:3229   */\n    tag_22:\n        /* \"#utility.yul\":3100:3104   */\n      0x00\n        /* \"#utility.yul\":3138:3140   */\n      0x20\n        /* \"#utility.yul\":3127:3136   */\n      dup3\n        /* \"#utility.yul\":3123:3141   */\n      add\n        /* \"#utility.yul\":3115:3141   */\n      swap1\n      pop\n        /* \"#utility.yul\":3151:3222   */\n      tag_96\n        /* \"#utility.yul\":3219:3220   */\n      0x00\n        /* \"#utility.yul\":3208:3217   */\n      dup4\n        /* \"#utility.yul\":3204:3221   */\n      add\n        /* \"#utility.yul\":3195:3201   */\n      dup5\n        /* \"#utility.yul\":3151:3222   */\n      tag_51\n      jump\t// in\n    tag_96:\n        /* \"#utility.yul\":3007:3229   */\n      swap3\n      swap2\n      pop\n      pop\n      jump\t// out\n        /* \"#utility.yul\":3235:3404   */\n    tag_52:\n        /* \"#utility.yul\":3319:3330   */\n      0x00\n        /* \"#utility.yul\":3353:3359   */\n      dup3\n        /* \"#utility.yul\":3348:3351   */\n      dup3\n        /* \"#utility.yul\":3341:3360   */\n      mstore\n        /* \"#utility.yul\":3393:3397   */\n      0x20\n        /* \"#utility.yul\":3388:3391   */\n      dup3\n        /* \"#utility.yul\":3384:3398   */\n      add\n        /* \"#utility.yul\":3369:3398   */\n      swap1\n      pop\n        /* \"#utility.yul\":3235:3404   */\n      swap3\n      swap2\n      pop\n      pop\n      jump\t// out\n        /* \"#utility.yul\":3410:3570   */\n    tag_53:\n        /* \"#utility.yul\":3550:3562   */\n      0x4e6f7420656e6f75676800000000000000000000000000000000000000000000\n        /* \"#utility.yul\":3546:3547   */\n      0x00\n        /* \"#utility.yul\":3538:3544   */\n      dup3\n        /* \"#utility.yul\":3534:3548   */\n      add\n        /* \"#utility.yul\":3527:3563   */\n      mstore\n        /* \"#utility.yul\":3410:3570   */\n      pop\n      jump\t// out\n        /* \"#utility.yul\":3576:3942   */\n    tag_54:\n        /* \"#utility.yul\":3718:3721   */\n      0x00\n        /* \"#utility.yul\":3739:3806   */\n      tag_100\n        /* \"#utility.yul\":3803:3805   */\n      0x0a\n        /* \"#utility.yul\":3798:3801   */\n      dup4\n        /* \"#utility.yul\":3739:3806   */\n      tag_52\n      jump\t// in\n    tag_100:\n        /* \"#utility.yul\":3732:3806   */\n      swap2\n      pop\n        /* \"#utility.yul\":3815:3908   */\n      tag_101\n        /* \"#utility.yul\":3904:3907   */\n      dup3\n        /* \"#utility.yul\":3815:3908   */\n      tag_53\n      jump\t// in\n    tag_101:\n        /* \"#utility.yul\":3933:3935   */\n      0x20\n        /* \"#utility.yul\":3928:3931   */\n      dup3\n        /* \"#utility.yul\":3924:3936   */\n      add\n        /* \"#utility.yul\":3917:3936   */\n      swap1\n      pop\n        /* \"#utility.yul\":3576:3942   */\n      swap2\n      swap1\n      pop\n      jump\t// out\n        /* \"#utility.yul\":3948:4367   */\n    tag_30:\n        /* \"#utility.yul\":4114:4118   */\n      0x00\n        /* \"#utility.yul\":4152:4154   */\n      0x20\n        /* \"#utility.yul\":4141:4150   */\n      dup3\n        /* \"#utility.yul\":4137:4155   */\n      add\n        /* \"#utility.yul\":4129:4155   */\n      swap1\n      pop\n        /* \"#utility.yul\":4201:4210   */\n      dup2\n        /* \"#utility.yul\":4195:4199   */\n      dup2\n        /* \"#utility.yul\":4191:4211   */\n      sub\n        /* \"#utility.yul\":4187:4188   */\n      0x00\n        /* \"#utility.yul\":4176:4185   */\n      dup4\n        /* \"#utility.yul\":4172:4189   */\n      add\n        /* \"#utility.yul\":4165:4212   */\n      mstore\n        /* \"#utility.yul\":4229:4360   */\n      tag_103\n        /* \"#utility.yul\":4355:4359   */\n      dup2\n        /* \"#utility.yul\":4229:4360   */\n      tag_54\n      jump\t// in\n    tag_103:\n        /* \"#utility.yul\":4221:4360   */\n      swap1\n      pop\n        /* \"#utility.yul\":3948:4367   */\n      swap2\n      swap1\n      pop\n      jump\t// out\n        /* \"#utility.yul\":4373:4553   */\n    tag_55:\n        /* \"#utility.yul\":4421:4498   */\n      0x4e487b7100000000000000000000000000000000000000000000000000000000\n        /* \"#utility.yul\":4418:4419   */\n      0x00\n        /* \"#utility.yul\":4411:4499   */\n      mstore\n        /* \"#utility.yul\":4518:4522   */\n      0x11\n        /* \"#utility.yul\":4515:4516   */\n      0x04\n        /* \"#utility.yul\":4508:4523   */\n      mstore\n        /* \"#utility.yul\":4542:4546   */\n      0x24\n        /* \"#utility.yul\":4539:4540   */\n      0x00\n        /* \"#utility.yul\":4532:4547   */\n      revert\n        /* \"#utility.yul\":4559:4753   */\n    tag_32:\n        /* \"#utility.yul\":4599:4603   */\n      0x00\n        /* \"#utility.yul\":4619:4639   */\n      tag_106\n        /* \"#utility.yul\":4637:4638   */\n      dup3\n        /* \"#utility.yul\":4619:4639   */\n      tag_42\n      jump\t// in\n    tag_106:\n        /* \"#utility.yul\":4614:4639   */\n      swap2\n      pop\n        /* \"#utility.yul\":4653:4673   */\n      tag_107\n        /* \"#utility.yul\":4671:4672   */\n      dup4\n        /* \"#utility.yul\":4653:4673   */\n      tag_42\n      jump\t// in\n    tag_107:\n        /* \"#utility.yul\":4648:4673   */\n      swap3\n      pop\n        /* \"#utility.yul\":4697:4698   */\n      dup3\n        /* \"#utility.yul\":4694:4695   */\n      dup3\n        /* \"#utility.yul\":4690:4699   */\n      sub\n        /* \"#utility.yul\":4682:4699   */\n      swap1\n      pop\n        /* \"#utility.yul\":4721:4722   */\n      dup2\n        /* \"#utility.yul\":4715:4719   */\n      dup2\n        /* \"#utility.yul\":4712:4723   */\n      gt\n        /* \"#utility.yul\":4709:4746   */\n      iszero\n      tag_108\n      jumpi\n        /* \"#utility.yul\":4726:4744   */\n      tag_109\n      tag_55\n      jump\t// in\n    tag_109:\n        /* \"#utility.yul\":4709:4746   */\n    tag_108:\n        /* \"#utility.yul\":4559:4753   */\n      swap3\n      swap2\n      pop\n      pop\n      jump\t// out\n        /* \"#utility.yul\":4759:4950   */\n    tag_34:\n        /* \"#utility.yul\":4799:4802   */\n      0x00\n        /* \"#utility.yul\":4818:4838   */\n      tag_111\n        /* \"#utility.yul\":4836:4837   */\n      dup3\n        /* \"#utility.yul\":4818:4838   */\n      tag_42\n      jump\t// in\n    tag_111:\n        /* \"#utility.yul\":4813:4838   */\n      swap2\n      pop\n        /* \"#utility.yul\":4852:4872   */\n      tag_112\n        /* \"#utility.yul\":4870:4871   */\n      dup4\n        /* \"#utility.yul\":4852:4872   */\n      tag_42\n      jump\t// in\n    tag_112:\n        /* \"#utility.yul\":4847:4872   */\n      swap3\n      pop\n        /* \"#utility.yul\":4895:4896   */\n      dup3\n        /* \"#utility.yul\":4892:4893   */\n      dup3\n        /* \"#utility.yul\":4888:4897   */\n      add\n        /* \"#utility.yul\":4881:4897   */\n      swap1\n      pop\n        /* \"#utility.yul\":4916:4919   */\n      dup1\n        /* \"#utility.yul\":4913:4914   */\n      dup3\n        /* \"#utility.yul\":4910:4920   */\n      gt\n        /* \"#utility.yul\":4907:4943   */\n      iszero\n      tag_113\n      jumpi\n        /* \"#utility.yul\":4923:4941   */\n      tag_114\n      tag_55\n      jump\t// in\n    tag_114:\n        /* \"#utility.yul\":4907:4943   */\n    tag_113:\n        /* \"#utility.yul\":4759:4950   */\n      swap3\n      swap2\n      pop\n      pop\n      jump\t// out\n\n    auxdata: 0xa2646970667358221220c20198c55d26f906518638afcf26fa953979300cf12dc8819094386515c56d2764736f6c63430008180033\n}\n",
				"bytecode": {
					"linkReferences": {},
					"object": "608060405260646000806101000a81548163ffffffff021916908363ffffffff16021790555034801561003157600080fd5b5061059c806100416000396000f3fe608060405234801561001057600080fd5b506004361061004c5760003560e01c80631e57b0c5146100515780633ae14aa31461006f578063477348921461009f57806361d78262146100cf575b600080fd5b6100596100ed565b60405161006691906102d1565b60405180910390f35b61008960048036038101906100849190610385565b610106565b60405161009691906103e0565b60405180910390f35b6100b960048036038101906100b491906103fb565b610255565b6040516100c69190610437565b60405180910390f35b6100d761029e565b6040516100e491906102d1565b60405180910390f35b60008060009054906101000a900463ffffffff16905090565b60008060009054906101000a900463ffffffff1663ffffffff168311610161576040517f08c379a0000000000000000000000000000000000000000000000000000000008152600401610158906104af565b60405180910390fd5b60008060009054906101000a900463ffffffff1663ffffffff168461018691906104fe565b905060008054906101000a900463ffffffff1663ffffffff16600260008573ffffffffffffffffffffffffffffffffffffffff1673ffffffffffffffffffffffffffffffffffffffff16815260200190815260200160002060008282546101ed9190610532565b9250508190555080600160008573ffffffffffffffffffffffffffffffffffffffff1673ffffffffffffffffffffffffffffffffffffffff16815260200190815260200160002060008282546102439190610532565b92505081905550600191505092915050565b6000600160008373ffffffffffffffffffffffffffffffffffffffff1673ffffffffffffffffffffffffffffffffffffffff168152602001908152602001600020549050919050565b60008054906101000a900463ffffffff1681565b600063ffffffff82169050919050565b6102cb816102b2565b82525050565b60006020820190506102e660008301846102c2565b92915050565b600080fd5b6000819050919050565b610304816102f1565b811461030f57600080fd5b50565b600081359050610321816102fb565b92915050565b600073ffffffffffffffffffffffffffffffffffffffff82169050919050565b600061035282610327565b9050919050565b61036281610347565b811461036d57600080fd5b50565b60008135905061037f81610359565b92915050565b6000806040838503121561039c5761039b6102ec565b5b60006103aa85828601610312565b92505060206103bb85828601610370565b9150509250929050565b60008115159050919050565b6103da816103c5565b82525050565b60006020820190506103f560008301846103d1565b92915050565b600060208284031215610411576104106102ec565b5b600061041f84828501610370565b91505092915050565b610431816102f1565b82525050565b600060208201905061044c6000830184610428565b92915050565b600082825260208201905092915050565b7f4e6f7420656e6f75676800000000000000000000000000000000000000000000600082015250565b6000610499600a83610452565b91506104a482610463565b602082019050919050565b600060208201905081810360008301526104c88161048c565b9050919050565b7f4e487b7100000000000000000000000000000000000000000000000000000000600052601160045260246000fd5b6000610509826102f1565b9150610514836102f1565b925082820390508181111561052c5761052b6104cf565b5b92915050565b600061053d826102f1565b9150610548836102f1565b92508282019050808211156105605761055f6104cf565b5b9291505056fea2646970667358221220c20198c55d26f906518638afcf26fa953979300cf12dc8819094386515c56d2764736f6c63430008180033",
					"opcodes": "PUSH1 0x80 PUSH1 0x40 MSTORE PUSH1 0x64 PUSH1 0x0 DUP1 PUSH2 0x100 EXP DUP2 SLOAD DUP2 PUSH4 0xFFFFFFFF MUL NOT AND SWAP1 DUP4 PUSH4 0xFFFFFFFF AND MUL OR SWAP1 SSTORE POP CALLVALUE DUP1 ISZERO PUSH2 0x31 JUMPI PUSH1 0x0 DUP1 REVERT JUMPDEST POP PUSH2 0x59C DUP1 PUSH2 0x41 PUSH1 0x0 CODECOPY PUSH1 0x0 RETURN INVALID PUSH1 0x80 PUSH1 0x40 MSTORE CALLVALUE DUP1 ISZERO PUSH2 0x10 JUMPI PUSH1 0x0 DUP1 REVERT JUMPDEST POP PUSH1 0x4 CALLDATASIZE LT PUSH2 0x4C JUMPI PUSH1 0x0 CALLDATALOAD PUSH1 0xE0 SHR DUP1 PUSH4 0x1E57B0C5 EQ PUSH2 0x51 JUMPI DUP1 PUSH4 0x3AE14AA3 EQ PUSH2 0x6F JUMPI DUP1 PUSH4 0x47734892 EQ PUSH2 0x9F JUMPI DUP1 PUSH4 0x61D78262 EQ PUSH2 0xCF JUMPI JUMPDEST PUSH1 0x0 DUP1 REVERT JUMPDEST PUSH2 0x59 PUSH2 0xED JUMP JUMPDEST PUSH1 0x40 MLOAD PUSH2 0x66 SWAP2 SWAP1 PUSH2 0x2D1 JUMP JUMPDEST PUSH1 0x40 MLOAD DUP1 SWAP2 SUB SWAP1 RETURN JUMPDEST PUSH2 0x89 PUSH1 0x4 DUP1 CALLDATASIZE SUB DUP2 ADD SWAP1 PUSH2 0x84 SWAP2 SWAP1 PUSH2 0x385 JUMP JUMPDEST PUSH2 0x106 JUMP JUMPDEST PUSH1 0x40 MLOAD PUSH2 0x96 SWAP2 SWAP1 PUSH2 0x3E0 JUMP JUMPDEST PUSH1 0x40 MLOAD DUP1 SWAP2 SUB SWAP1 RETURN JUMPDEST PUSH2 0xB9 PUSH1 0x4 DUP1 CALLDATASIZE SUB DUP2 ADD SWAP1 PUSH2 0xB4 SWAP2 SWAP1 PUSH2 0x3FB JUMP JUMPDEST PUSH2 0x255 JUMP JUMPDEST PUSH1 0x40 MLOAD PUSH2 0xC6 SWAP2 SWAP1 PUSH2 0x437 JUMP JUMPDEST PUSH1 0x40 MLOAD DUP1 SWAP2 SUB SWAP1 RETURN JUMPDEST PUSH2 0xD7 PUSH2 0x29E JUMP JUMPDEST PUSH1 0x40 MLOAD PUSH2 0xE4 SWAP2 SWAP1 PUSH2 0x2D1 JUMP JUMPDEST PUSH1 0x40 MLOAD DUP1 SWAP2 SUB SWAP1 RETURN JUMPDEST PUSH1 0x0 DUP1 PUSH1 0x0 SWAP1 SLOAD SWAP1 PUSH2 0x100 EXP SWAP1 DIV PUSH4 0xFFFFFFFF AND SWAP1 POP SWAP1 JUMP JUMPDEST PUSH1 0x0 DUP1 PUSH1 0x0 SWAP1 SLOAD SWAP1 PUSH2 0x100 EXP SWAP1 DIV PUSH4 0xFFFFFFFF AND PUSH4 0xFFFFFFFF AND DUP4 GT PUSH2 0x161 JUMPI PUSH1 0x40 MLOAD PUSH32 0x8C379A000000000000000000000000000000000000000000000000000000000 DUP2 MSTORE PUSH1 0x4 ADD PUSH2 0x158 SWAP1 PUSH2 0x4AF JUMP JUMPDEST PUSH1 0x40 MLOAD DUP1 SWAP2 SUB SWAP1 REVERT JUMPDEST PUSH1 0x0 DUP1 PUSH1 0x0 SWAP1 SLOAD SWAP1 PUSH2 0x100 EXP SWAP1 DIV PUSH4 0xFFFFFFFF AND PUSH4 0xFFFFFFFF AND DUP5 PUSH2 0x186 SWAP2 SWAP1 PUSH2 0x4FE JUMP JUMPDEST SWAP1 POP PUSH1 0x0 DUP1 SLOAD SWAP1 PUSH2 0x100 EXP SWAP1 DIV PUSH4 0xFFFFFFFF AND PUSH4 0xFFFFFFFF AND PUSH1 0x2 PUSH1 0x0 DUP6 PUSH20 0xFFFFFFFFFFFFFFFFFFFFFFFFFFFFFFFFFFFFFFFF AND PUSH20 0xFFFFFFFFFFFFFFFFFFFFFFFFFFFFFFFFFFFFFFFF AND DUP2 MSTORE PUSH1 0x20 ADD SWAP1 DUP2 MSTORE PUSH1 0x20 ADD PUSH1 0x0 KECCAK256 PUSH1 0x0 DUP3 DUP3 SLOAD PUSH2 0x1ED SWAP2 SWAP1 PUSH2 0x532 JUMP JUMPDEST SWAP3 POP POP DUP2 SWAP1 SSTORE POP DUP1 PUSH1 0x1 PUSH1 0x0 DUP6 PUSH20 0xFFFFFFFFFFFFFFFFFFFFFFFFFFFFFFFFFFFFFFFF AND PUSH20 0xFFFFFFFFFFFFFFFFFFFFFFFFFFFFFFFFFFFFFFFF AND DUP2 MSTORE PUSH1 0x20 ADD SWAP1 DUP2 MSTORE PUSH1 0x20 ADD PUSH1 0x0 KECCAK256 PUSH1 0x0 DUP3 DUP3 SLOAD PUSH2 0x243 SWAP2 SWAP1 PUSH2 0x532 JUMP JUMPDEST SWAP3 POP POP DUP2 SWAP1 SSTORE POP PUSH1 0x1 SWAP2 POP POP SWAP3 SWAP2 POP POP JUMP JUMPDEST PUSH1 0x0 PUSH1 0x1 PUSH1 0x0 DUP4 PUSH20 0xFFFFFFFFFFFFFFFFFFFFFFFFFFFFFFFFFFFFFFFF AND PUSH20 0xFFFFFFFFFFFFFFFFFFFFFFFFFFFFFFFFFFFFFFFF AND DUP2 MSTORE PUSH1 0x20 ADD SWAP1 DUP2 MSTORE PUSH1 0x20 ADD PUSH1 0x0 KECCAK256 SLOAD SWAP1 POP SWAP2 SWAP1 POP JUMP JUMPDEST PUSH1 0x0 DUP1 SLOAD SWAP1 PUSH2 0x100 EXP SWAP1 DIV PUSH4 0xFFFFFFFF AND DUP2 JUMP JUMPDEST PUSH1 0x0 PUSH4 0xFFFFFFFF DUP3 AND SWAP1 POP SWAP2 SWAP1 POP JUMP JUMPDEST PUSH2 0x2CB DUP2 PUSH2 0x2B2 JUMP JUMPDEST DUP3 MSTORE POP POP JUMP JUMPDEST PUSH1 0x0 PUSH1 0x20 DUP3 ADD SWAP1 POP PUSH2 0x2E6 PUSH1 0x0 DUP4 ADD DUP5 PUSH2 0x2C2 JUMP JUMPDEST SWAP3 SWAP2 POP POP JUMP JUMPDEST PUSH1 0x0 DUP1 REVERT JUMPDEST PUSH1 0x0 DUP2 SWAP1 POP SWAP2 SWAP1 POP JUMP JUMPDEST PUSH2 0x304 DUP2 PUSH2 0x2F1 JUMP JUMPDEST DUP2 EQ PUSH2 0x30F JUMPI PUSH1 0x0 DUP1 REVERT JUMPDEST POP JUMP JUMPDEST PUSH1 0x0 DUP2 CALLDATALOAD SWAP1 POP PUSH2 0x321 DUP2 PUSH2 0x2FB JUMP JUMPDEST SWAP3 SWAP2 POP POP JUMP JUMPDEST PUSH1 0x0 PUSH20 0xFFFFFFFFFFFFFFFFFFFFFFFFFFFFFFFFFFFFFFFF DUP3 AND SWAP1 POP SWAP2 SWAP1 POP JUMP JUMPDEST PUSH1 0x0 PUSH2 0x352 DUP3 PUSH2 0x327 JUMP JUMPDEST SWAP1 POP SWAP2 SWAP1 POP JUMP JUMPDEST PUSH2 0x362 DUP2 PUSH2 0x347 JUMP JUMPDEST DUP2 EQ PUSH2 0x36D JUMPI PUSH1 0x0 DUP1 REVERT JUMPDEST POP JUMP JUMPDEST PUSH1 0x0 DUP2 CALLDATALOAD SWAP1 POP PUSH2 0x37F DUP2 PUSH2 0x359 JUMP JUMPDEST SWAP3 SWAP2 POP POP JUMP JUMPDEST PUSH1 0x0 DUP1 PUSH1 0x40 DUP4 DUP6 SUB SLT ISZERO PUSH2 0x39C JUMPI PUSH2 0x39B PUSH2 0x2EC JUMP JUMPDEST JUMPDEST PUSH1 0x0 PUSH2 0x3AA DUP6 DUP3 DUP7 ADD PUSH2 0x312 JUMP JUMPDEST SWAP3 POP POP PUSH1 0x20 PUSH2 0x3BB DUP6 DUP3 DUP7 ADD PUSH2 0x370 JUMP JUMPDEST SWAP2 POP POP SWAP3 POP SWAP3 SWAP1 POP JUMP JUMPDEST PUSH1 0x0 DUP2 ISZERO ISZERO SWAP1 POP SWAP2 SWAP1 POP JUMP JUMPDEST PUSH2 0x3DA DUP2 PUSH2 0x3C5 JUMP JUMPDEST DUP3 MSTORE POP POP JUMP JUMPDEST PUSH1 0x0 PUSH1 0x20 DUP3 ADD SWAP1 POP PUSH2 0x3F5 PUSH1 0x0 DUP4 ADD DUP5 PUSH2 0x3D1 JUMP JUMPDEST SWAP3 SWAP2 POP POP JUMP JUMPDEST PUSH1 0x0 PUSH1 0x20 DUP3 DUP5 SUB SLT ISZERO PUSH2 0x411 JUMPI PUSH2 0x410 PUSH2 0x2EC JUMP JUMPDEST JUMPDEST PUSH1 0x0 PUSH2 0x41F DUP5 DUP3 DUP6 ADD PUSH2 0x370 JUMP JUMPDEST SWAP2 POP POP SWAP3 SWAP2 POP POP JUMP JUMPDEST PUSH2 0x431 DUP2 PUSH2 0x2F1 JUMP JUMPDEST DUP3 MSTORE POP POP JUMP JUMPDEST PUSH1 0x0 PUSH1 0x20 DUP3 ADD SWAP1 POP PUSH2 0x44C PUSH1 0x0 DUP4 ADD DUP5 PUSH2 0x428 JUMP JUMPDEST SWAP3 SWAP2 POP POP JUMP JUMPDEST PUSH1 0x0 DUP3 DUP3 MSTORE PUSH1 0x20 DUP3 ADD SWAP1 POP SWAP3 SWAP2 POP POP JUMP JUMPDEST PUSH32 0x4E6F7420656E6F75676800000000000000000000000000000000000000000000 PUSH1 0x0 DUP3 ADD MSTORE POP JUMP JUMPDEST PUSH1 0x0 PUSH2 0x499 PUSH1 0xA DUP4 PUSH2 0x452 JUMP JUMPDEST SWAP2 POP PUSH2 0x4A4 DUP3 PUSH2 0x463 JUMP JUMPDEST PUSH1 0x20 DUP3 ADD SWAP1 POP SWAP2 SWAP1 POP JUMP JUMPDEST PUSH1 0x0 PUSH1 0x20 DUP3 ADD SWAP1 POP DUP2 DUP2 SUB PUSH1 0x0 DUP4 ADD MSTORE PUSH2 0x4C8 DUP2 PUSH2 0x48C JUMP JUMPDEST SWAP1 POP SWAP2 SWAP1 POP JUMP JUMPDEST PUSH32 0x4E487B7100000000000000000000000000000000000000000000000000000000 PUSH1 0x0 MSTORE PUSH1 0x11 PUSH1 0x4 MSTORE PUSH1 0x24 PUSH1 0x0 REVERT JUMPDEST PUSH1 0x0 PUSH2 0x509 DUP3 PUSH2 0x2F1 JUMP JUMPDEST SWAP2 POP PUSH2 0x514 DUP4 PUSH2 0x2F1 JUMP JUMPDEST SWAP3 POP DUP3 DUP3 SUB SWAP1 POP DUP2 DUP2 GT ISZERO PUSH2 0x52C JUMPI PUSH2 0x52B PUSH2 0x4CF JUMP JUMPDEST JUMPDEST SWAP3 SWAP2 POP POP JUMP JUMPDEST PUSH1 0x0 PUSH2 0x53D DUP3 PUSH2 0x2F1 JUMP JUMPDEST SWAP2 POP PUSH2 0x548 DUP4 PUSH2 0x2F1 JUMP JUMPDEST SWAP3 POP DUP3 DUP3 ADD SWAP1 POP DUP1 DUP3 GT ISZERO PUSH2 0x560 JUMPI PUSH2 0x55F PUSH2 0x4CF JUMP JUMPDEST JUMPDEST SWAP3 SWAP2 POP POP JUMP INVALID LOG2 PUSH5 0x6970667358 0x22 SLT KECCAK256 0xC2 ADD SWAP9 0xC5 TSTORE 0x26 0xF9 MOD MLOAD DUP7 CODESIZE 0xAF 0xCF 0x26 STATICCALL SWAP6 CODECOPY PUSH26 0x300CF12DC8819094386515C56D2764736F6C6343000818003300 "
				},
				"gasEstimates": {
					"creation": {
						"codeDepositCost": "287200",
						"executionCost": "24591",
						"totalCost": "311791"
					},
					"external": {
						"VAT()": "2512",
						"addAmount(uint256,address)": "infinite",
						"getUserBalance(address)": "2863",
						"getVATvalue()": "2457"
					}
				},
				"methodIdentifiers": {
					"VAT()": "61d78262",
					"addAmount(uint256,address)": "3ae14aa3",
					"getUserBalance(address)": "47734892",
					"getVATvalue()": "1e57b0c5"
				}
			},
			"storageLayout": {
				"storage": [
					{
						"astId": 4,
						"contract": "contracts/Num.sol:Number",
						"label": "VAT",
						"offset": 0,
						"slot": "0",
						"type": "t_uint32"
					},
					{
						"astId": 8,
						"contract": "contracts/Num.sol:Number",
						"label": "acct",
						"offset": 0,
						"slot": "1",
						"type": "t_mapping(t_address,t_uint256)"
					},
					{
						"astId": 12,
						"contract": "contracts/Num.sol:Number",
						"label": "vatPayment",
						"offset": 0,
						"slot": "2",
						"type": "t_mapping(t_address,t_uint256)"
					}
				],
				"types": {
					"t_address": {
						"encoding": "inplace",
						"label": "address",
						"numberOfBytes": "20"
					},
					"t_mapping(t_address,t_uint256)": {
						"encoding": "mapping",
						"key": "t_address",
						"label": "mapping(address => uint256)",
						"numberOfBytes": "32",
						"value": "t_uint256"
					},
					"t_uint256": {
						"encoding": "inplace",
						"label": "uint256",
						"numberOfBytes": "32"
					},
					"t_uint32": {
						"encoding": "inplace",
						"label": "uint32",
						"numberOfBytes": "4"
					}
				}
			},
			"userdoc": {
				"kind": "user",
				"methods": {},
				"version": 1
			}
		}
	}
}