{
	"data": {
		"bytecode": {
			"linkReferences": {},
			"object": "6080604052348015600e575f80fd5b506101058061001c5f395ff3fe6080604052348015600e575f80fd5b50600436106026575f3560e01c80635d02e2f314602a575b5f80fd5b60306047565b604051603e94939291906094565b60405180910390f35b5f805f805f610fa090505f60c890505f6105dc90505f6108fc90508383838397509750975097505050505090919293565b5f63ffffffff82169050919050565b608e816078565b82525050565b5f60808201905060a55f8301876087565b60b060208301866087565b60bb60408301856087565b60c660608301846087565b9594505050505056fea264697066735822122087ad6a82b0db8799136b7d5829a526f81676ef7fcd86a0a8be2e525c84d0c4d464736f6c634300081a0033",
			"opcodes": "PUSH1 0x80 PUSH1 0x40 MSTORE CALLVALUE DUP1 ISZERO PUSH1 0xE JUMPI PUSH0 DUP1 REVERT JUMPDEST POP PUSH2 0x105 DUP1 PUSH2 0x1C PUSH0 CODECOPY PUSH0 RETURN INVALID PUSH1 0x80 PUSH1 0x40 MSTORE CALLVALUE DUP1 ISZERO PUSH1 0xE JUMPI PUSH0 DUP1 REVERT JUMPDEST POP PUSH1 0x4 CALLDATASIZE LT PUSH1 0x26 JUMPI PUSH0 CALLDATALOAD PUSH1 0xE0 SHR DUP1 PUSH4 0x5D02E2F3 EQ PUSH1 0x2A JUMPI JUMPDEST PUSH0 DUP1 REVERT JUMPDEST PUSH1 0x30 PUSH1 0x47 JUMP JUMPDEST PUSH1 0x40 MLOAD PUSH1 0x3E SWAP5 SWAP4 SWAP3 SWAP2 SWAP1 PUSH1 0x94 JUMP JUMPDEST PUSH1 0x40 MLOAD DUP1 SWAP2 SUB SWAP1 RETURN JUMPDEST PUSH0 DUP1 PUSH0 DUP1 PUSH0 PUSH2 0xFA0 SWAP1 POP PUSH0 PUSH1 0xC8 SWAP1 POP PUSH0 PUSH2 0x5DC SWAP1 POP PUSH0 PUSH2 0x8FC SWAP1 POP DUP4 DUP4 DUP4 DUP4 SWAP8 POP SWAP8 POP SWAP8 POP SWAP8 POP POP POP POP POP SWAP1 SWAP2 SWAP3 SWAP4 JUMP JUMPDEST PUSH0 PUSH4 0xFFFFFFFF DUP3 AND SWAP1 POP SWAP2 SWAP1 POP JUMP JUMPDEST PUSH1 0x8E DUP2 PUSH1 0x78 JUMP JUMPDEST DUP3 MSTORE POP POP JUMP JUMPDEST PUSH0 PUSH1 0x80 DUP3 ADD SWAP1 POP PUSH1 0xA5 PUSH0 DUP4 ADD DUP8 PUSH1 0x87 JUMP JUMPDEST PUSH1 0xB0 PUSH1 0x20 DUP4 ADD DUP7 PUSH1 0x87 JUMP JUMPDEST PUSH1 0xBB PUSH1 0x40 DUP4 ADD DUP6 PUSH1 0x87 JUMP JUMPDEST PUSH1 0xC6 PUSH1 0x60 DUP4 ADD DUP5 PUSH1 0x87 JUMP JUMPDEST SWAP6 SWAP5 POP POP POP POP POP JUMP INVALID LOG2 PUSH5 0x6970667358 0x22 SLT KECCAK256 DUP8 0xAD PUSH11 0x82B0DB8799136B7D5829A5 0x26 0xF8 AND PUSH23 0xEF7FCD86A0A8BE2E525C84D0C4D464736F6C634300081A STOP CALLER "
		},
		"gasEstimates": {
			"creation": {
				"codeDepositCost": "52200",
				"executionCost": "103",
				"totalCost": "52303"
			},
			"external": {
				"locationPrices()": "infinite"
			}
		},
		"methodIdentifiers": {
			"locationPrices()": "5d02e2f3"
		}
	},
	"abi": [
		{
			"inputs": [],
			"name": "locationPrices",
			"outputs": [
				{
					"internalType": "uint32",
					"name": "",
					"type": "uint32"
				},
				{
					"internalType": "uint32",
					"name": "",
					"type": "uint32"
				},
				{
					"internalType": "uint32",
					"name": "",
					"type": "uint32"
				},
				{
					"internalType": "uint32",
					"name": "",
					"type": "uint32"
				}
			],
			"stateMutability": "view",
			"type": "function"
		}
	]
}